:020000040800F2
:1000000000000220216F000805650008096500084E
:100010000D65000811650008156500080000000066
:10002000000000000000000000000000196500084A
:100030001D6500080000000021650008093C00085B
:10004000716F0008716F0008716F0008716F000810
:10005000716F0008716F0008F15200080153000829
:10006000716F0008716F0008716F0008716F0008F0
:10007000716F0008716F0008716F0008716F0008E0
:10008000716F0008716F0008254E0008716F00083D
:10009000716F0008716F0008716F0008115300083C
:1000A000716F0008716F0008716F0008716F0008B0
:1000B000716F0008E556000821530008716F0008B1
:1000C000716F0008716F0008716F0008716F000890
:1000D000716F0008716F0008716F0008716F000880
:1000E000716F0008716F0008716F0008716F000870
:1000F00095560008BD560008716F0008716F000822
:10010000716F0008716F00085D540008716F00087E
:10011000716F0008716F0008555700081D570008DF
:10012000716F0008716F0008716F0008716F00082F
:10013000716F0008716F0008716F0008716F00081F
:10014000716F0008716F0008716F0008716F00080F
:10015000716F0008716F0008716F0008716F0008FF
:10016000716F0008716F0008716F0008716F0008EF
:10017000716F0008716F0008716F0008716F0008DF
:08018000716F0008716F0008A7
:1001880070B54FF0FF0C4CF4E06C1CEA11541DBF25
:100198001CEA135594EA0C0F95EA0C0F00F0DEF8F0
:1001A8002C4481EA030621EA4C5123EA4C5350EAD5
:1001B800013518BF52EA033541F4801143F4801326
:1001C80038D0A0FB02CE4FF00005E1FB02E506F0B7
:1001D8000042E0FB03E54FF00006E1FB03569CF00C
:1001E800000F18BF4EF0010EA4F1FF04B6F5007F12
:1001F80064F5407404D25FEA4E0E6D4146EB060684
:1002080042EAC62141EA55514FEAC52040EA5E500C
:100218004FEACE2EB4F1FD0C88BFBCF5E06F1ED8B6
:10022800BEF1004F08BF5FEA500E50F1000041EBED
:10023800045170BD06F0004646EA010140EA02009A
:1002480081EA0301B4EB5C04C2BFD4EB0C0541EABC
:10025800045170BD41F480114FF0000E013C00F3D1
:10026800AB8014F1360FDEBF002001F0004170BDF5
:10027800C4F10004203C35DA0C341BDC04F114040E
:10028800C4F1200500FA05F320FA04F001FA05F29A
:1002980040EA020001F0004221F0004110EBD37067
:1002A80021FA04F642EB06015EEA430E08BF20EA93
:1002B800D37070BDC4F10C04C4F1200500FA04F336
:1002C80020FA05F001FA04F240EA020001F00041C8
:1002D80010EBD37041F100015EEA430E08BF20EA3B
:1002E800D37070BDC4F1200500FA05F24EEA020E83
:1002F80020FA04F301FA05F243EA020321FA04F0B2
:1003080001F0004121FA04F220EA020000EBD37068
:100318005EEA430E08BF20EAD37070BD94F0000F68
:100328000FD101F00046400041EB010111F4801F9C
:1003380008BF013CF7D041EA060195F0000F18BF4D
:10034800704703F00046520043EB030313F4801F89
:1003580008BF013DF7D043EA0603704794EA0C0F43
:100368000CEA135518BF95EA0C0F0CD050EA410659
:1003780018BF52EA4306D1D181EA030101F00041D6
:100388004FF0000070BD50EA410606BF10461946FE
:1003980052EA430619D094EA0C0F02D150EA01360A
:1003A80013D195EA0C0F05D152EA03361CBF10464B
:1003B80019460AD181EA030101F0004141F0FE41EA
:1003C80041F470014FF0000070BD41F0FE4141F46E
:1003D800780170BD81F0004102E000BF83F0004366
:1003E80030B54FEA41044FEA430594EA050F08BFC8
:1003F80090EA020F1FBF54EA000C55EA020C7FEA8C
:10040800645C7FEA655C00F0E2804FEA5454D4EB08
:100418005555B8BF6D420CDD2C4480EA020281EAD2
:10042800030382EA000083EA010180EA020281EA0A
:100438000303362D88BF30BD11F0004F4FEA01315C
:100448004FF4801C4CEA113102D0404261EB41016B
:1004580013F0004F4FEA03334CEA133302D05242F1
:1004680063EB430394EA050F00F0A780A4F10104AD
:10047800D5F1200E0DDB02FA0EFC22FA05F28018E7
:1004880041F1000103FA0EF2801843FA05F35941CD
:100498000EE0A5F120050EF1200E012A03FA0EFC4C
:1004A80028BF4CF0020C43FA05F3C01851EBE37176
:1004B80001F0004507D54FF0000EDCF1000C7EEB93
:1004C80000006EEB0101B1F5801F1BD3B1F5001FD1
:1004D8000CD349085FEA30004FEA3C0C04F10104F0
:1004E8004FEA445212F5800F80F09A80BCF1004F19
:1004F80008BF5FEA500C50F1000041EB045141EA9B
:10050800050130BD5FEA4C0C404141EB0101013C63
:1005180028BFB1F5801FE9D291F0000F04BF014652
:100528000020B1FA81F308BF2033A3F10B03B3F124
:1005380020020CDA0C3208DD02F1140CC2F10C02B4
:1005480001FA0CF021FA02F10CE002F11402D8BF12
:10055800C2F1200C01FA02F120FA0CFCDCBF41EADE
:100568000C019040E41AA2BF01EB0451294330BDAD
:100578006FEA04041F3C1CDA0C340EDC04F114048A
:10058800C4F1200220FA04F001FA02F340EA030061
:1005980021FA04F345EA030130BDC4F10C04C4F1A7
:1005A800200220FA02F001FA04F340EA0300294687
:1005B80030BD21FA04F0294630BD94F0000F83F4D1
:1005C800801306BF81F480110134013D4EE77FEAB4
:1005D800645C18BF7FEA655C29D094EA050F08BF00
:1005E80090EA020F05D054EA000C04BF19461046E1
:1005F80030BD91EA030F1EBF0021002030BD5FEA25
:10060800545C05D14000494128BF41F0004130BD4C
:1006180014F580043CBF01F5801130BD01F00045A0
:1006280045F0FE4141F470014FF0000030BD7FEA13
:10063800645C1ABF194610467FEA655C1CBF0B460E
:10064800024650EA013406BF52EA033591EA030F25
:1006580041F4002130BD00BF90F0000F04BF00211D
:10066800704730B54FF4806404F132044FF0000550
:100678004FF0000150E700BF90F0000F04BF0021C9
:10068800704730B54FF4806404F1320410F000452F
:1006980048BF40424FF000013EE700BF42004FEA2A
:1006A800E2014FEA31014FEA02701FBF12F07F43A7
:1006B80093F07F4F81F06051704732F07F4208BF5E
:1006C800704793F07F4F04BF41F40021704730B565
:1006D8004FF4607401F0004521F000411CE700BFB1
:1006E80050EA010208BF704730B54FF000050AE034
:1006F80050EA010208BF704730B511F0004502D535
:10070800404261EB41014FF4806404F132045FEA36
:10071800915C3FF4D8AE4FF003025FEADC0C18BFDF
:1007280003325FEADC0C18BF033202EBDC02C2F1D1
:10073800200300FA03FC20FA02F001FA03FE40EA63
:100748000E0021FA02F11444BDE600BF4A0011D29E
:1007580012F5001211D20DD56FF47873B3EB625213
:100768000ED44FEAC12343F0004343EA505323FA1F
:1007780002F070474FF00000704750EA013002D194
:100788004FF0FF3070474FF0000070474FEA4102CA
:10079800B2F1E04324BFB3F5001CDCF1FE5C0DD9D7
:1007A80001F0004C4FEAC0024CEA5070B2F1004F21
:1007B80040EB830008BF20F00100704711F0804F24
:1007C80021D113F13872BCBF01F00040704741F4E9
:1007D80080114FEA5252C2F11802C2F1200C10FAED
:1007E8000CF320FA02F018BF40F001004FEAC123D1
:1007F8004FEAD32303FA0CFC40EA0C0023FA02F375
:100808004FEA4303CCE77FEA625307D150EA01334A
:100818001EBF4FF0FE4040F44000704701F000401A
:1008280040F0FE4040F40000704700BF53B94AB999
:10083800002908BF00281CBF4FF0FF314FF0FF30E0
:1008480000F00CB8ADF1080C6DE904CE06F08EFB93
:10085800DDF804E0DDE9022304B07047704700BF0B
:100868000348044B834202D0034B03B11847704737
:100878004000002040000020000000000548064B12
:100888001B1AD90F01EBA301491002D0034B03B186
:10089800184770474000002040000020000000007A
:1008A80010B5064C237843B9FFF7DAFF044B13B1B0
:1008B8000448AFF300800123237010BD40000020DE
:1008C800000000000873000808B5054B1BB1054976
:1008D8000548AFF30080BDE80840FFF7CFBF00BF71
:1008E8000000000044000020087300088F4A4FF4FD
:1008F80000435383FF2108234FF4804C4FF40050EA
:1009080011F0800F14BFA2F818C0A2F81AC05083C3
:1009180000BF00BF00BF00BF00BF00BF00BF00BFD7
:1009280000BF00BF00BF00BF00BF00BF00BF00BFC7
:10093800108300BF00BF00BF00BF00BF00BF00BFE3
:1009480000BF00BF00BF00BF00BF00BF00BF00BFA7
:1009580000BF013B13F0FF034FEA4101D0D14FF430
:10096800804C7249A2F81AC00823FF224FF40050A5
:1009780012F0800F14BFA1F818C0A1F81AC048835C
:1009880000BF00BF00BF00BF00BF00BF00BF00BF67
:1009980000BF00BF00BF00BF00BF00BF00BF00BF57
:1009A800088300BF00BF00BF00BF00BF00BF00BF7B
:1009B80000BF00BF00BF00BF00BF00BF00BF00BF37
:1009C80000BF013B13F0FF034FEA4202D0D14FF4BE
:1009D800804C564AA1F81AC00823FF214FF4005052
:1009E80011F0800F14BFA2F818C0A2F81AC05083E3
:1009F80000BF00BF00BF00BF00BF00BF00BF00BFF7
:100A080000BF00BF00BF00BF00BF00BF00BF00BFE6
:100A1800108300BF00BF00BF00BF00BF00BF00BF02
:100A280000BF00BF00BF00BF00BF00BF00BF00BFC6
:100A380000BF013B13F0FF034FEA4101D0D14FF44F
:100A4800804C3A49A2F81AC00823FF224FF40050FC
:100A580012F0800F14BFA1F818C0A1F81AC048837B
:100A680000BF00BF00BF00BF00BF00BF00BF00BF86
:100A780000BF00BF00BF00BF00BF00BF00BF00BF76
:100A8800088300BF00BF00BF00BF00BF00BF00BF9A
:100A980000BF00BF00BF00BF00BF00BF00BF00BF56
:100AA80000BF013B13F0FF034FEA4202D0D14FF4DD
:100AB800804C1E4AA1F81AC00823FF214FF40050A9
:100AC80011F0800F14BFA2F818C0A2F81AC0508302
:100AD80000BF00BF00BF00BF00BF00BF00BF00BF16
:100AE80000BF00BF00BF00BF00BF00BF00BF00BF06
:100AF800108300BF00BF00BF00BF00BF00BF00BF22
:100B080000BF00BF00BF00BF00BF00BF00BF00BFE5
:100B180000BF013B13F0FF034FEA4101D0D14FF46E
:100B280080414FF40043518313837047000802400B
:100B38008F4A4FF400435383FF2108234FF4804C1E
:100B48004FF4005011F0800F14BFA2F818C0A2F89B
:100B58001AC0508300BF00BF00BF00BF00BF00BF66
:100B680000BF00BF00BF00BF00BF00BF00BF00BF85
:100B780000BF00BF108300BF00BF00BF00BF00BFA1
:100B880000BF00BF00BF00BF00BF00BF00BF00BF65
:100B980000BF00BF00BF013B13F0FF034FEA410154
:100BA800D0D14FF4804C7248A2F81AC00823FF2213
:100BB8004FF4005112F0800F14BFA0F818C0A0F82D
:100BC8001AC0418300BF00BF00BF00BF00BF00BF05
:100BD80000BF00BF00BF00BF00BF00BF00BF00BF15
:100BE80000BF00BF018300BF00BF00BF00BF00BF40
:100BF80000BF00BF00BF00BF00BF00BF00BF00BFF5
:100C080000BF00BF00BF013B13F0FF034FEA4202E1
:100C1800D0D14FF4804C5649A0F81AC00823F022CE
:100C28004FF4005012F0800F14BFA1F818C0A1F8BB
:100C38001AC0488300BF00BF00BF00BF00BF00BF8D
:100C480000BF00BF00BF00BF00BF00BF00BF00BFA4
:100C580000BF00BF088300BF00BF00BF00BF00BFC8
:100C680000BF00BF00BF00BF00BF00BF00BF00BF84
:100C780000BF00BF00BF013B13F0FF034FEA420271
:100C8800D0D14FF4804C3A4AA1F81AC00823FF216A
:100C98004FF4005011F0800F14BFA2F818C0A2F84A
:100CA8001AC0508300BF00BF00BF00BF00BF00BF15
:100CB80000BF00BF00BF00BF00BF00BF00BF00BF34
:100CC80000BF00BF108300BF00BF00BF00BF00BF50
:100CD80000BF00BF00BF00BF00BF00BF00BF00BF14
:100CE80000BF00BF00BF013B13F0FF034FEA410103
:100CF800D0D14FF4804C1E4BA2F81AC00820FF2216
:100D08004FF4005112F0800F14BFA3F818C0A3F8D5
:100D18001AC0598300BF00BF00BF00BF00BF00BF9B
:100D280000BF00BF00BF00BF00BF00BF00BF00BFC3
:100D380000BF00BF198300BF00BF00BF00BF00BFD6
:100D480000BF00BF00BF00BF00BF00BF00BF00BFA3
:100D580000BF00BF00BF013810F0FF004FEA420299
:100D6800D0D14FF480414FF4004259831A83704721
:100D78000008024000B5012183B0042005F01AFFE5
:100D8800054B06484FF460426946CDE9002305F05B
:100D980051FE03B000BD00BF01020001000802407F
:100DA8007E4BA0F108024FF40041072A00B5598391
:100DB80000F0070E40F2F480A0F11002D2B2072A28
:100DC80039D80822FF214FF4804C4FF4005011F01D
:100DD800800F14BFA3F818C0A3F81AC0588300BF27
:100DE80000BF00BF00BF00BF00BF00BF00BF00BF03
:100DF80000BF00BF00BF00BF00BF00BF00BF188317
:100E080000BF00BF00BF00BF00BF00BF00BF00BFE2
:100E180000BF00BF00BF00BF00BF00BF00BF00BFD2
:100E2800013A12F0FF024FEA4101D0D14FF480425B
:100E38005A8372469CE04FF4804C4FF40051A3F85B
:100E480018C0598300BF00BF00BF00BF00BF00BF6C
:100E580000BF00BF00BF00BF00BF00BF00BF00BF92
:100E680000BF00BF198300BF00BF00BF00BF00BFA5
:100E780000BF00BF00BF00BF00BF00BF00BF00BF72
:100E880000BF00BF00BFA3F818C0598300BF00BF50
:100E980000BF00BF00BF00BF00BF00BF00BF00BF52
:100EA80000BF00BF00BF00BF00BF00BF198300BF65
:100EB80000BF00BF00BF00BF00BF00BF00BF00BF32
:100EC80000BF00BF00BF00BF00BF00BF00BFA3F846
:100ED80018C0598300BF00BF00BF00BF00BF00BFDC
:100EE80000BF00BF00BF00BF00BF00BF00BF00BF02
:100EF80000BF00BF198300BF00BF00BF00BF00BF15
:100F080000BF00BF00BF00BF00BF00BF00BF00BFE1
:100F180000BF00BF00BFA3F818C0598300BF00BFBF
:100F280000BF00BF00BF00BF00BF00BF00BF00BFC1
:100F380000BF00BF00BF00BF00BF00BF198300BFD4
:100F480000BF00BF00BF00BF00BF00BF00BF00BFA1
:100F580000BF00BF00BF00BF00BF00BF00BF00F15F
:100F68000801C9B22038A3F81AC0072888BF0A4662
:100F78000A4B4FF40041198300BF00BF00BF00BFF8
:100F880000BF00BF00BF00BF00BF00BF00BF00BF61
:100F980000BF00BF00BF00BF104600BD00080240F0
:100FA8000EF1010E4FF480404FF4005158830EF0BB
:100FB8000702598300BF00BF00BF00BF00BF00BFCA
:100FC80000BF00BF00BF00BF00BF00BF00BF00BF21
:100FD80000BF00BF198300BF00BF00BF00BF00BF34
:100FE80000BF00BF00BF00BF00BF00BF00BF00BF01
:100FF80000BF00BF00BF91080CBF58831883414B46
:101008004FF40051598300BF00BF00BF00BF00BFAD
:1010180000BF00BF00BF00BF00BF00BF00BF00BFD0
:1010280000BF00BF00BF198300BF00BF00BF00BFE3
:1010380000BF00BF00BF00BF00BF00BF00BF00BFB0
:1010480000BF00BF00BF00BF4FF4804112F0020F85
:101058000CBF598319832B4B4FF4005190005983CF
:1010680000BF00BF00BF00BF00BF00BF00BF00BF80
:1010780000BF00BF00BF00BF00BF00BF00BF00BF70
:10108800198300BF00BF00BF00BF00BF00BF00BF83
:1010980000BF00BF00BF00BF00BF00BF00BF00BF50
:1010A80000BF4FF4804140074CBF19835983154B4B
:1010B8004FF40051598300BF00BF00BF00BF00BFFD
:1010C80000BF00BF00BF00BF00BF00BF00BF00BF20
:1010D80000BF00BF00BF198300BF00BF00BF00BF33
:1010E80000BF00BF00BF00BF00BF00BF00BF00BF00
:1010F80000BF00BF00BF00BF4FF4804159831832C2
:1011080036E700BF00080240A0F14003072B00B5F6
:1011180000F0070E40F2F480A0F11002D2B2072AC4
:1011280047D8764A0823FF214FF4804C4FF40050EB
:1011380011F0800F14BFA2F818C0A2F81AC050838B
:1011480000BF00BF00BF00BF00BF00BF00BF00BF9F
:1011580000BF00BF00BF00BF00BF00BF00BF00BF8F
:10116800108300BF00BF00BF00BF00BF00BF00BFAB
:1011780000BF00BF00BF00BF00BF00BF00BF00BF6F
:1011880000BF013B13F0FF034FEA4101D0D14FF4F8
:10119800804353837246594B4FF4004159831423BB
:1011A80000BF013BFCD1554B4FF400411983104659
:1011B80000BD524B4FF4804C4FF40051A3F818C0B7
:1011C800598300BF00BF00BF00BF00BF00BF00BF02
:1011D80000BF00BF00BF00BF00BF00BF00BF00BF0F
:1011E80000BF198300BF00BF00BF00BF00BF00BF22
:1011F80000BF00BF00BF00BF00BF00BF00BF00BFEF
:1012080000BF00BFA3F818C0598300BF00BF00BFCC
:1012180000BF00BF00BF00BF00BF00BF00BF00BFCE
:1012280000BF00BF00BF00BF00BF198300BF00BFE1
:1012380000BF00BF00BF00BF00BF00BF00BF00BFAE
:1012480000BF00BF00BF00BF00BF00BFA3F818C0A9
:10125800598300BF00BF00BF00BF00BF00BF00BF71
:1012680000BF00BF00BF00BF00BF00BF00BF00BF7E
:1012780000BF198300BF00BF00BF00BF00BF00BF91
:1012880000BF00BF00BF00BF00BF00BF00BF00BF5E
:1012980000BF00BFA3F818C0598300BF00BF00BF3C
:1012A80000BF00BF00BF00BF00BF00BF00BF00BF3E
:1012B80000BF00BF00BF00BF00BF198300BF00BF51
:1012C80000BF00BF00BF00BF00BF00BF00BF00BF1E
:1012D80000BF00BF00BF00BF00BF00BFA3F81AC017
:1012E800A0F12003072B7FF656AFA0F10803072BC8
:1012F80094BF20300830C2B24DE700BF000802405A
:10130800584B0EF1010E4FF480404FF400515883B2
:101318000EF00702598300BF00BF00BF00BF00BF27
:1013280000BF00BF00BF00BF00BF00BF00BF00BFBD
:1013380000BF00BF00BF198300BF00BF00BF00BFD0
:1013480000BF00BF00BF00BF00BF00BF00BF00BF9D
:1013580000BF00BF00BF00BF91080CBF58831883AF
:10136800404B4FF40051598300BF00BF00BF00BF7E
:1013780000BF00BF00BF00BF00BF00BF00BF00BF6D
:1013880000BF00BF00BF00BF198300BF00BF00BF80
:1013980000BF00BF00BF00BF00BF00BF00BF00BF4D
:1013A80000BF00BF00BF00BF00BF4FF4804112F074
:1013B800020F0CBF598319832A4B4FF40051900038
:1013C800598300BF00BF00BF00BF00BF00BF00BF00
:1013D80000BF00BF00BF00BF00BF00BF00BF00BF0D
:1013E80000BF198300BF00BF00BF00BF00BF00BF20
:1013F80000BF00BF00BF00BF00BF00BF00BF00BFED
:1014080000BF00BF4FF4804140074CBF1983598388
:10141800144B4FF40051598300BF00BF00BF00BFF9
:1014280000BF00BF00BF00BF00BF00BF00BF00BFBC
:1014380000BF00BF00BF00BF198300BF00BF00BFCF
:1014480000BF00BF00BF00BF00BF00BF00BF00BF9C
:1014580000BF00BF00BF00BF00BF4FF480415983E9
:10146800183298E600080240834B4FF4004C4FF4C2
:1014780080414FF40052A3F81AC019835A8300BF61
:1014880000BF00BF00BF00BF00BF00BF00BF00BF5C
:1014980000BF00BF00BF00BF00BF00BF00BF1A836E
:1014A80000BF00BF00BF00BF00BF00BF00BF00BF3C
:1014B80000BF00BF00BF00BF00BF00BF00BF00BF2C
:1014C80019835A8300BF00BF00BF00BF00BF00BF21
:1014D80000BF00BF00BF00BF00BF00BF00BF00BF0C
:1014E80000BF00BF1A8300BF00BF00BF00BF00BF1E
:1014F80000BF00BF00BF00BF00BF00BF00BF00BFEC
:1015080000BF00BF00BF19835A8300BF00BF00BFE0
:1015180000BF00BF00BF00BF00BF00BF00BF00BFCB
:1015280000BF00BF00BF00BF00BF1A8300BF00BFDD
:1015380000BF00BF00BF00BF00BF00BF00BF00BFAB
:1015480000BF00BF00BF00BF00BF00BF19835A83A0
:1015580000BF00BF00BF00BF00BF00BF00BF00BF8B
:1015680000BF00BF00BF00BF00BF00BF00BF00BF7B
:101578001A8300BF00BF00BF00BF00BF00BF00BF8D
:1015880000BF00BF00BF00BF00BF00BF00BF00BF5B
:1015980000BF0207598354BF59831983364B4FF450
:1015A80000525A8300BF00BF00BF00BF00BF00BF8A
:1015B80000BF00BF00BF00BF00BF00BF00BF00BF2B
:1015C80000BF00BF1A8300BF00BF00BF00BF00BF3D
:1015D80000BF00BF00BF00BF00BF00BF00BF00BF0B
:1015E80000BF00BF00BF4FF48042410754BF5A8379
:1015F8001A83214B4FF400525A8300BF00BF00BF2B
:1016080000BF00BF00BF00BF00BF00BF00BF00BFDA
:1016180000BF00BF00BF00BF00BF1A8300BF00BFEC
:1016280000BF00BF00BF00BF00BF00BF00BF00BFBA
:1016380000BF00BF00BF00BF00BF00BF4FF4804223
:101648008100800754BF5A831A830B4B4FF4005212
:101658005A8300BF00BF00BF00BF00BF00BF00BF6C
:1016680000BF00BF00BF00BF00BF00BF00BF00BF7A
:1016780000BF1A8300BF01E00008024000BF00BF9E
:1016880000BF00BF00BF00BF00BF00BF00BF00BF5A
:1016980000BF00BF00BF00BF00BF4FF48042490732
:1016A8004CBF1A835A83384A4FF40050508300BF06
:1016B80000BF00BF00BF00BF00BF00BF00BF00BF2A
:1016C80000BF00BF00BF00BF00BF00BF00BF108346
:1016D80000BF00BF00BF00BF00BF00BF00BF00BF0A
:1016E80000BF00BF00BF00BF00BF00BF00BF00BFFA
:1016F8004FF4804CA2F81AC00823FF2111F0800F84
:1017080014BFA2F818C0A2F81AC0508300BF00BFC7
:1017180000BF00BF00BF00BF00BF00BF00BF00BFC9
:1017280000BF00BF00BF00BF00BF00BF108300BFE5
:1017380000BF00BF00BF00BF00BF00BF00BF00BFA9
:1017480000BF00BF00BF00BF00BF00BF00BF013B1C
:1017580013F0FF034FEA4101D0D14FF480414FF419
:1017680000435183138300BF00BF00BF00BF00BF09
:1017780000BF00BF00BF00BF00BF00BF00BF00BF69
:1017880000BF00BF00BF70470008024000B50F4906
:101798000F4A002300206FF0FF0E4FF0FF3CCB7480
:1017A8000B75C1F80CE0C1F808C00B744B748B744E
:1017B80008604860D3741375C2F80CE0C2F808C01A
:1017C8001374537493741060506000BD740000204B
:1017D8005C000020084A52F82020107CD17C127D41
:1017E800002360F3070361F30F2362F3174382B00A
:1017F800184602B0704700BF00000020024B53F8A3
:101808002030D974704700BF00000020000000009D
:1018180008B500283AD0012802D09FED350A08BD46
:10182800344B354A5B89D2ED056A9FED347A9BB219
:1018380007EE903AF8EE677A67EEA67AF4EEC77A82
:10184800F1EE10FA3AD4DFED2E6AF4EEE67AF1EE14
:1018580010FA21D477EEE67A17EE900AFEF71EFF0B
:10186800284B0022FEF78CFC274B0022FEF7B8FD20
:10187800FEF78CFFFEF712FF19A3D3E90023FEF74A
:101888007FFCFEF783FF00EE100A08BD194B1A4AC9
:101898001B89D2ED046AC8E777EEC77A17EE900A7B
:1018A800FEF7FCFE10A3D3E90023FEF769FC174BF3
:1018B8000022FEF795FDFEF769FFDBE717EE900AB9
:1018C800FEF7ECFE124B0022FEF75AFC00224FF006
:1018D8008143FEF785FDFEF759FFCBE7AFF30080A4
:1018E8001BE8EB432800503FD34D62105839EC3FBA
:1018F80000000000B00000200800002000A0AA445A
:1019080000A02A450000F83F0000A04000009040D9
:101918000000D83F000000002DE9F041664D674EF9
:10192800EC7C2A7D3389664F9FED667AD7ED046A91
:101938009BB207EE903AF8EE677AE4B267EEA67AC1
:101948005FFA82F8F4EEC77AF1EE10FA78D4DFED98
:101958005E6AF4EEE67AF1EE10FA5FD477EEE67A94
:1019680017EE900AFEF79AFE584B0022FEF708FC85
:10197800574B0022FEF734FDFEF708FFFEF78EFEF8
:1019880049A3D3E90023FEF7FBFBFEF7FFFE414620
:1019980000EE100A204604F047F94E4CE860E17C5E
:1019A800227D7389D7ED056A9FED467A9BB207EED3
:1019B800903AF8EE677ACDB267EEA67AD6B2F4EE30
:1019C800C77AF1EE10FA4BD4DFED3F6AF4EEE67A0F
:1019D800F1EE10FA54D577EEC77A17EE900AFEF7B3
:1019E8005DFE33A3D3E90023FEF7CAFB3A4B00227E
:1019F800FEF7F6FCFEF7CAFEFEF750FE2AA3D3E96F
:101A08000023FEF7BDFBFEF7C1FE314600EE100ACB
:101A1800284604F009F9E060BDE8F08177EEC77A5E
:101A280017EE900AFEF73AFE21A3D3E90023FEF74A
:101A3800A7FB294B0022FEF7D3FCFEF7A7FE9DE784
:101A480017EE900AFEF72AFE244B0022FEF798FBB9
:101A580000224FF08143FEF7C3FCFEF797FE8DE7A7
:101A680017EE900AFEF71AFE1C4B0022FEF788FBC1
:101A780000224FF08143FEF7B3FCFEF787FEBBE779
:101A880077EEE67A17EE900AFEF708FE0F4B002273
:101A9800FEF776FB0E4B0022FEF7A2FCFEF776FE61
:101AA800AAE700BFAFF300801BE8EB432800503FD4
:101AB800D34D62105839EC3F74000020B00000206C
:101AC8000800002000A0AA4400A02A450000F83F12
:101AD8000000A0405C000020000090400000D83FBB
:101AE80070B5494B53F82040237C032B82B021D09A
:101AF800042B02D0002002B070BD0029FAD10122C7
:101B08000190217DE07C227404F036FAE37C207594
:101B18001D46019B064683B1012B45D09FED3B0A2C
:101B28003146284604F080F80023C4E90230012039
:101B380002B070BD0029E2D1DCE7354B354A1B897C
:101B4800D2ED046A9FED347A9BB207EE903AF8EE34
:101B5800677A67EEA67AF4EEC77AF1EE10FA29D41E
:101B6800DFED2E6AF4EEE67AF1EE10FA32D577EE72
:101B7800C77A17EE900AFEF791FD1FA3D3E9002359
:101B8800FEF7FEFA264B0022FEF72AFCFEF7FEFDC2
:101B9800FEF784FD1AA3D3E90023FEF7F1FAFEF756
:101BA800F5FD00EE100ABBE7194B1A4A5B89D2ED26
:101BB800056AC7E717EE900AFEF770FD194B002279
:101BC800FEF7DEFA00224FF08143FEF709FCFEF72C
:101BD800DDFDDDE777EEE67A17EE900AFEF75EFDAB
:101BE800114B0022FEF7CCFA104B0022FEF7F8FB4F
:101BF800FEF7CCFDCCE700BFD34D62105839EC3F5F
:101C08001BE8EB432800503F0000002000000000C4
:101C1800B00000200800002000A0AA4400A02A4527
:101C2800000090400000D83F0000F83F0000A040AE
:101C380070B5474B53F82040E27C236863600D463B
:101C480016462175002850D0012818D09FED410A6A
:101C58002946304603F0E8FF237CE060033B012B74
:101C68009CBF637C23743C4B0022A2601A7842F02C
:101C780001021A701A7842F002021A7070BD374BCE
:101C8800374A5B89D2ED056A9FED367A9BB207EE3B
:101C9800903AF8EE677A67EEA67AF4EEC77AF1EE34
:101CA80010FA3AD4DFED306AF4EEE67AF1EE10FA83
:101CB80021D477EEE67A17EE900AFEF7EFFC2B4B6D
:101CC8000022FEF75DFA2A4B0022FEF789FBFEF799
:101CD8005DFDFEF7E3FC1AA3D3E90023FEF750FAF3
:101CE800FEF754FD00EE100AB2E71C4B1C4A1B8994
:101CF800D2ED046AC8E777EEC77A17EE900AFEF7C6
:101D0800CDFC11A3D3E90023FEF73AFA194B0022C0
:101D1800FEF766FBFEF73AFDDBE717EE900AFEF7E3
:101D2800BDFC154B0022FEF72BFA00224FF0814331
:101D3800FEF756FBFEF72AFDCBE700BFAFF30080A6
:101D48001BE8EB432800503FD34D62105839EC3F55
:101D58000000002000000000E0000020B00000208B
:101D68000800002000A0AA4400A02A450000F83F6F
:101D78000000A040000090400000D83F044B53F8FA
:101D8800203000224FF0FF311A741A75996070479D
:101D9800000000200000000038B5474B53F82040F1
:101DA800237C022B00D138BDE17C226862600023CD
:101DB8000D462375D0B101284FD09FED400A002170
:101DC800284603F031FF237CE060033B012B9CBFD6
:101DD800637C23743A4B0022A2601A7842F0010215
:101DE8001A701A7842F002021A7038BD354B364A1A
:101DF8001B89D2ED046A9FED357A9BB207EE903AC3
:101E0800F8EE677A67EEA67AF4EEC77AF1EE10FA82
:101E180029D4DFED2F6AF4EEE67AF1EE10FA32D526
:101E280077EEC77A17EE900AFEF738FC1EA3D3E9BF
:101E38000023FEF7A5F9274B0022FEF7D1FAFEF79B
:101E4800A5FCFEF72BFC1AA3D3E90023FEF798F9AB
:101E5800FEF79CFC00EE100AB1E71A4B1A4A5B89A0
:101E6800D2ED056AC7E717EE900AFEF717FC1A4B82
:101E78000022FEF785F900224FF08143FEF7B0FA01
:101E8800FEF784FCDDE777EEE67A17EE900AFEF7B8
:101E980005FC124B0022FEF773F9114B0022FEF7E6
:101EA8009FFAFEF773FCCCE7D34D62105839EC3F2C
:101EB8001BE8EB432800503F000000200000000012
:101EC800E0000020B00000200800002000A0AA4484
:101ED80000A02A45000090400000D83F0000F83FCD
:101EE8000000A04070B5654B82B011F47F0F53F825
:101EF800206001910446CDB238D19DF8053035B93E
:101F08001BB1337C012B00F0A08002B070BD357C82
:101F180063B1022DF9D0317DF07C04F02DF8014633
:101F2800204602B0BDE87040FFF782BE002D4ED0BB
:101F3800033D012DE9D8002800F08B800128E4D169
:101F480001462020009304F041FE4D4A009B4FF4C7
:101F5800A4611185D462536294811388494943F07E
:101F680001034FF4000013804860CEE718BB464BCE
:101F7800464A9B8992ED067A9BB207EE903AF8EEB4
:101F8800677A67EE877A17EE900AFEF787FB404B71
:101F98000022FEF725FAFEF7D9FB3E4B3E4A1B7896
:101FA800002B4CD0C0119074937C1F21DBB2994256
:101FB80038BF917401E0012826D0B17C2046FFF794
:101FC80037FE002DA1D00123337402B070BD012368
:101FD8003374317DF07C03F0CFFF307500902046DC
:101FE800F47CFFF715FC0099204603F01DFE2B4BEF
:101FF800F0601A78B56042F001021A701A7842F05F
:1020080002021A7002B070BD1F4B204ADB8992EDA4
:10201800077A9BB207EE903AF8EE677A67EE877A0E
:1020280017EE900AFEF73AFB194B0022FEF7D8F993
:10203800FEF78CFB174B1A4A1B78002BB2D1001203
:102048009074937C0F21DBB2B1E7144B35741A7886
:10205800D1E70121022004F0B9FD124B01224FF40F
:10206800A4611985DA625C629A811A88054942F08E
:1020780001024FF000501A80086046E70000002077
:102088000014004000E100E0B0000020080000203B
:102098000000E03F2C01002074000020E000002038
:1020A8005C000020000400402DE9F0470E46AB49D3
:1020B800DFF8D4A251F8264086B005460192E17CAB
:1020C800207D00EB0110C0B2D2B25AF82000D4F83B
:1020D80008E0D4F80CC0E645CDE902004FF000074F
:1020E8004FEA1021C0F3C049C0F3005802D2A068DB
:1020F8000344A360237C022B00F0AC80A068E36853
:10210800984256D2E07C217D03F0D8FC84ED000A89
:10211800227D934B03EB82035E88A268E3689A42B0
:10212800C6F38D0643D2A168E2688DED000A00234C
:102138008802890DFEF77AFB9DF80830C0F57F709C
:10214800C3F340079B0700F1030015D5D4ED017ACE
:102158009DED000A94ED017AD4ED026A30EE470A4B
:1021680094ED037AF8EE666AB8EE477A86EE876AE7
:10217800E0EE067AC4ED007A2268A3682A60202B74
:1021880083BF4FF00008C146434601232A7AE880FE
:1021980043EA490343EA880343EAC70322F00F02EC
:1021A80013432846AE802B7206B0BDE8F0870020A6
:1021B800E2E72368636088074FF0FF33A36044BFFA
:1021C8000023237401F0040309071ED5217C032989
:1021D8001BD0C2B9217C617403212174A26003B1B0
:1021E800237C237C012B8DD1E07C217D03F0C4FE70
:1021F8002075E27C237D03EB0213DBB230465AF8EC
:10220800233005933CE00021A160002BE9D0237C1A
:10221800042BE6D0012AE4D1237C637404232374BD
:10222800002E00F0B380012EDBD13146202004F0CF
:10223800CDFC4C4B4FF4A4621A850022DE625A6230
:102248009E811A8842F001021A80474B4FF400021F
:102258005A60C6E7002E2FD0012E57D0227DA37CCE
:102268009A423FF44FAF23686360A37C2375E27CF6
:10227800237D03EB0213DBB230465AF82330049374
:102288000293E67C94F814A0C3F3C049C3F3005842
:10229800FFF7BEFA5FFA8AF1F0B203F0C5FC334BE0
:1022A800E0600022A2601A7842F001021A701A78DF
:1022B80042F002021A7025E72D4B9B899BB207EE6C
:1022C800903A2C4BF8EE677A93ED067A67EE877AA8
:1022D80017EE900AFEF7E2F9274B0022FEF780F886
:1022E800FEF734FA254B1B784BB1254AC011907480
:1022F800937C1F21DBB2994238BF9174AEE7204A24
:1023080000129074937C0F21DBB2F4E7184BDB8941
:102318009BB207EE903A174BF8EE677A93ED077A7F
:1023280067EE877A17EE900AFEF7B8F9124B00228B
:10233800FEF756F8FEF70AFA104B1B7833B9114A24
:1023480000129074937C0F21DBB2D4E70D4AC011C0
:102358009074937C1F21DBB2CDE700BF0000002002
:10236800FC0100200014004000E100E0E000002033
:10237800B0000020080000200000E03F2C010020F1
:10238800740000205C0000207C020020114602201E
:10239800009204F01BFC084B009A4FF4A4611985C5
:1023A800DA625E629A811A8842F001021A80034B4F
:1023B8004FF000521A6014E70004004000E100E00A
:1023C800084B53F820301A7C022A09D006485A7460
:1023D80001784FF0020C41F0010283F810C002703E
:1023E800704700BF00000020E00000200A4B53F8AF
:1023F80020301A7C022A0DD1084993F811C00878B8
:1024080083F810C040F001005A7408700B7843F04C
:1024180002030B70704700BF00000020E00000209E
:10242800054B53F82030D3E90220824234BF801A8A
:102438004FF0FF30704700BF00000020820707D42C
:10244800C30714D50D49DFF868C00D480D4A04E0EC
:102458000D49DFF860C00D480D4A0E4B19600E4B50
:102468000E49C3F800C00E4B08601A6070470D494A
:10247800DFF844C00C480D4AEFE700BF33B3F5431B
:10248800740CC83C8FC2F53D00C0CC438E06F03CAE
:10249800CDCCCC3DA4000020A00000209C00002052
:1024A800A800002000C04C448E06703CCDCC4C3EA9
:1024B800CDCC23420080084200808842DFF8A0C0CB
:1024C8003CF810200B019BB292B293423CF81020CA
:1024D8008CBF9A1AD21A92B27F2A11D83CF81020CF
:1024E8003CF8101092B29B1A01EB23132CF8103011
:1024F8003CF81030194AC3F30B1322F81030704718
:10250800B2F5007F0AD23CF810203CF8101092B2C5
:102518009B1A01EBE3032CF81030E9E7B2F5806F62
:102528000DD3B2F5006F15D23CF810203CF810100E
:1025380092B29B1A01EB63032CF81030D8E73CF8F1
:1025480010203CF8101092B29B1A01EBA3032CF850
:102558001030CDE72CF81030CAE700BFB0000020DB
:102568008C000020014B23F810107047B0000020A9
:102578004D4BDFED4E6A1A8892B2632A9CBF40F633
:10258800FF721A801A88598892B207EE902AF8EEDC
:10259800677A89B286EEA77A63299CBF40F6FF71F5
:1025A80059805988424A89B207EE901ADFED3F6A8E
:1025B80082ED007AF8EE677A998886EEA77A89B272
:1025C80063299CBF40F6FF719980998889B207EE0C
:1025D800901ADFED366A82ED017AF8EE677AD988CB
:1025E80086EEA77A89B263299CBF40F6FF71D9802D
:1025F800D98889B207EE901ADFED2C6A82ED027A4B
:10260800F8EE677A198986EEA77A89B263299CBFA2
:1026180040F6FF711981198989B207EE901ADFED2A
:10262800236A82ED037AF8EE677A598986EEA77AEB
:1026380089B263299CBF40F6FF715981598989B2D3
:1026480007EE901ADFED196A82ED047AF8EE677AE0
:10265800998986EEA77A89B263299CBF40F6FF71F3
:102668009981998989B207EE901ADFED106A82ED97
:10267800057AF8EE677AD98986EEA77A89B263294E
:102688009CBF40F6FF71D981DB899BB207EE903A77
:10269800DFED066A82ED067AF8EE677A86EEA77AAB
:1026A80082ED077A704700BF2800002000F07F45C0
:1026B8000800002010B5012188B0042004F07AFA3F
:1026C80001A804F009FA284B28484FF4E05201A960
:1026D800CDE9012304F0AEF90121082004F06AFADB
:1026E80001A804F0F9F90424214B22480DEB040158
:1026F800CDE9014304F09EF91C4806220A2104F0A2
:10270800FBF91A4806220B2104F0F6F906221748AD
:102718000C2104F0F1F92146164804F0E9F90121E9
:102728004FF4004004F052FA134804F07FFA03A86B
:1027380004F00AFB114A4FF082704FF40033CDE9E0
:10274800030303A910230C48CDE9052304F0D6FAA6
:102758000948012104F000FB07484FF4807104F098
:1027680005FB08B010BD00BF0202000100080240CE
:1027780001030001000C0240003C0040010000027F
:1027880038B5AF48042104F0B5F9AE48022104F089
:10279800FFFA0028F9D0AB48062104F0F7FAA94857
:1027A800012104F0F5FA0028F9D0A64804F0EAFA65
:1027B800C82001F047FAA248042104F099F9A0487A
:1027C800042104F097F99F48022104F0E1FA002857
:1027D800F9D09C48022104F0D9FA9A48012104F062
:1027E800D7FA0028F9D0974804F0CCFA9548022186
:1027F80004F0CEFA0028F9D09248002104F0C6FA75
:102808009048012104F0C4FA0028F9D08D4804F05A
:10281800B9FA8C48022104F0BBFA0028F9D089489B
:10282800002104F0B3FA8748012104F0B1FA002826
:10283800F9D0844804F0A6FA8248022104F0A8FAE4
:102848000028F9D07F48002104F0A0FA7D48012132
:1028580004F09EFA0028F9D07A4804F093FA01248B
:10286800610640F0A080C82001F0ECF9744804210A
:1028780004F03EF9012001F0CBF97148042104F07D
:1028880039F97048022104F083FA0028F9D06D481C
:10289800052104F07BFA6B48012104F079FA00283D
:1028A800F9D0684804F06EFA022001F0CBF96548C7
:1028B800022104F06DFA0028F9D06248002104F0E2
:1028C80065FA6048012104F063FA0028F9D05D48F0
:1028D80004F058FA0546C82001F0B4F95848042114
:1028E80004F006F9EA07C5D4012001F091F954482B
:1028F800042104F0FFF85348022104F049FA0028A3
:10290800F9D05048062104F041FA4E48012104F05C
:102918003FFA0028F9D04B4804F034FAC82001F0F7
:1029280091F94748042104F0E3F84548042104F0EC
:10293800E1F84448022104F02BFA0028F9D0414874
:10294800022104F023FA3F48012104F021FA00286B
:10295800F9D03C4804F016FA250A3A48022104F056
:1029680017FA0028F9D03748294604F00FFA3548F5
:10297800012104F00DFA0028F9D0324804F002FAD7
:102988003048022104F004FA0028F9D02D48E1B2B9
:1029980004F0FCF92B48012104F0FAF90028F9D0D9
:1029A800284804F0EFF92748022104F0F1F900283B
:1029B800F9D02448002104F0E9F92248012104F063
:1029C800E7F90028F9D01F48013404F0DBF9A4B274
:1029D8004FF6FF739C427FF443AFC82001F032F9F1
:1029E8001748042104F084F8012001F011F9144873
:1029F800042104F07FF81348022104F0C9F90028E3
:102A0800F9D01048052104F0C1F90E48012104F05D
:102A1800BFF90028F9D00B4804F0B4F9022001F0FE
:102A280011F90848022104F0B3F90028F9D0054843
:102A3800002104F0ABF90348012104F0A9F903E0EF
:102A4800000C0240003C00400028F4D0084804F084
:102A580099F90446C82001F0F5F80648042104F065
:102A680047F8E30703D5012001F0D2F8BFE738BDE6
:102A7800003C0040000C02402DE9F04106460C469F
:102A8800B0480421154604F035F8AF48022104F097
:102A98007FF90028F9D0AC48062104F077F9AA4854
:102AA800012104F075F90028F9D0A74804F06AF963
:102AB800C82001F0C7F8A348042104F019F8A14878
:102AC800042104F017F8A048022104F061F9002855
:102AD800F9D09D48022104F059F99B48012104F0DE
:102AE80057F90028F9D0984804F04CF9370A964865
:102AF800022104F04DF90028F9D09348394604F032
:102B080045F99148012104F043F90028F9D08E488D
:102B180004F038F98C48022104F03AF90028F9D079
:102B28008948F1B204F032F98748012104F030F9FC
:102B38000028F9D0844804F025F9002D00F0DC8045
:102B480027788148022104F023F90028F9D07E482B
:102B5800394604F01BF97C48012104F019F90028D2
:102B6800F9D0794804F00EF9012D00F0C580631CF6
:102B7800023D013613FA85F5361B33195A069FB202
:102B880040F0A280C82001F05DF86E48042103F0EF
:102B9800AFFF012001F03CF86A48042103F0AAFFC6
:102BA8006948022104F0F4F80028F9D066480521A4
:102BB80004F0ECF86448012104F0EAF80028F9D0A0
:102BC800614804F0DFF8022001F03CF85E48022179
:102BD80004F0DEF80028F9D05B48002104F0D6F8AC
:102BE8005948012104F0D4F80028F9D0564804F0D7
:102BF800C9F88046C82001F025F85248042103F09E
:102C080077FF18F0010FC4D1012001F001F84D48F9
:102C1800042103F06FFF4C48022104F0B9F80028A2
:102C2800F9D04948062104F0B1F84748012104F0D9
:102C3800AFF80028F9D0444804F0A4F8C82001F0FF
:102C480001F84048042103F053FF3E48042103F0F3
:102C580051FF3D48022104F09BF80028F9D03A487A
:102C6800022104F093F83848012104F091F8002873
:102C7800F9D0354804F086F84FEA1728324802217F
:102C880004F086F80028F9D02F48414604F07EF871
:102C98002D48012104F07CF80028F9D02A4804F0D6
:102CA80071F82948022104F073F80028F9D0264861
:102CB800F9B204F06BF82448012104F069F80028FF
:102CC800F9D0214804F05EF814F8017F1E4802216B
:102CD80004F05EF80028F9D01B48394604F056F88D
:102CE8001948012104F054F80028F9D0164804F0D6
:102CF80049F8A5427FF441AFC82000F0A3FF11486E
:102D0800042103F0F5FE012000F082FF0D480421A4
:102D180003F0F0FE0C48022104F03AF80028F9D03C
:102D28000948052104F032F80748012104F030F879
:102D38000028F9D0044804F025F8022000F082FFAA
:102D480004E000BF000C0240003C00401148022192
:102D580004F01EF80028F9D00E48002104F016F8F7
:102D68000C48012104F014F80028F9D0094804F0AF
:102D780009F80446C82000F065FF0748042103F05D
:102D8800B7FEE30703D5012000F042FFBEE7BDE828
:102D9800F08100BF003C0040000C0240F8B5064638
:102DA8000C4630480421154603F0A4FE2E480221A3
:102DB80003F0EEFF0028F9D02B48032103F0E6FFCB
:102DC8002948012103F0E4FF0028F9D0264803F040
:102DD800D9FF370A2448022103F0DAFF0028F9D086
:102DE8002148394603F0D2FF1F48012103F0D0FFE4
:102DF8000028F9D01C4803F0C5FF1B48022103F046
:102E0800C7FF0028F9D01848F1B203F0BFFF1648F1
:102E1800012103F0BDFF0028F9D0134803F0B2FFE9
:102E2800BDB125441048022103F0B2FF0028F9D0B3
:102E38000D48002103F0AAFF0B48012103F0A8FF69
:102E48000028F9D0084803F09DFF04F8010BAC42B4
:102E5800E8D1C82000F0F6FEBDE8F840014804219A
:102E680003F046BE000C0240003C004010B5437918
:102E780082B00022044613F00200ADF800208DF85D
:102E88000220ADF804208DF8062043D013F010007E
:102E98001AD013F0010051D0237998061DD5E37894
:102EA800990743D56079020750D510F0200024D146
:102EB800FFF786FAE3785B074FF0010025D402B0EC
:102EC800BDE81040FFF77CBA01238DF80230009965
:102ED800FFF708F823799806E1D40120FEF75CFF94
:102EE8001F4B60791A7842F001021A701A7810F0B4
:102EF800200042F002021A70DAD00020FFF776FABA
:102F0800E3785B074FF00100D9D502B0BDE8104067
:102F1800FFF76CBAFEF740FF114B1A7842F0010236
:102F28001A701A7842F002021A70B5E701208DF87B
:102F380006000199FEF7D6FF6079B6E740F2011363
:102F4800ADF800300099FEF7CDFFA5E740F2011378
:102F5800ADF8043001200199FEF7C4FF6079A4E7B9
:102F6800E0000020F0B5074685B00020FEF732FCEF
:102F7800C0F30721C0F307428DF8080001208DF83F
:102F880009108DF80A20FEF725FC79798DF80C00D8
:102F9800C0F30722C0F3074311F004008DF80D2099
:102FA8008DF80E3003D1804B1A78002A61D1397917
:102FB80011F0400105D17C4B1A78012A1CBF01226F
:102FC8001A703B7803F00C020C2A00F08E80764AC7
:102FD800147804F0FF05002C30D01478012C00F090
:102FE800C480724D724C734E96F800C0BCF1000F4D
:102FF80016D15A0700F1CB80002800F09A8089B9D1
:103008000120FEF7FBFB684A6B49012313700A781D
:103018003B7842F001020A700A7842F002020A7014
:103028005A076DD42A8803F0080322BB002B7DD1F0
:1030380023884BB3013B9BB2238026E05F4C604E54
:103048005D4B9DF809C04FF0020E82F800E086F84B
:1030580000C025701C7844F001041C701C7844EAF8
:103068000E041C70514D524C3B78782626802E80D9
:10307800B9E718709BE7013A92B22A80002B4AD12F
:103088002388002B6BD1B2B900234B4A4B481178E7
:1030980041F001011170117841F0020111700278BC
:1030A800002A58D13278002A0CBF0F221F22027042
:1030B8001E222A80BBB9404B40491A78307842F02A
:1030C80001021A701A7842F002021A700A7800286F
:1030D80014BF1F230F239A4216BF0B780023013316
:1030E8000B701E23238005B0F0BD324B1B78C3B98B
:1030F8002E4D2F4C0A232B800A23238005B0F0BDC8
:103108000A221B072A80F7D42388002BD3D0013B3F
:103118009BB22380CEE70A232380002AE3D10A2327
:10312800B3E7224B224C0A221A80E5E70A232380C0
:10313800F5E701460190FEF761FB1B4A0198107004
:103148001D4A3B78117841F001011170117841F066
:103158000201117064E70278013A0270A8E7013BA6
:103168009BB22380002A90D0A4E703231370144B4A
:103178009DF80D401C70114C0F4B002525701C78D4
:1031880044F001041C701C7844F0020469E71B0732
:10319800B0D408B90121CDE711B90121084630E7BB
:1031A8000A232B80B0E700BFDD0000203800002094
:1031B8003A0000202C010020E0000020CF00002071
:1031C800CE00002010B53D4B3D4C4FF6FE7282B04C
:1031D8001A8201F087FA3B4A11781D29034602D862
:1031E80020781D281CD9019300F0B0FF3348002136
:1031F80003F04AFE3148334A0188019B21F001015E
:10320800018011781E2917D021781E2914D003F0C7
:1032180003030021032B117021701FD002B010BDD1
:1032280003F0020C13F001031DD101311170BCF140
:10323800000F40D02370F1E7019302F01DFC00203D
:10324800FEF79CFD0120FEF799FD019B1D4A03F046
:1032580003030021032B11702170DFD11A4B0022C8
:103268001A7002B010BDBCF1000F04D1013082F811
:1032780000C02070D2E7144BA9B930B1197821B930
:1032880012490220C8700121197000210B480193CE
:103298001170217003F0F8FD0848019B028822F0A4
:1032A80001020280DBE719780029EED107480121E5
:1032B800C1701970E9E701302070AFE700100040D5
:1032C800C1000020C2000020C0000020C40000206F
:1032D800F8B501F007FA5248524E534D0C464021BA
:1032E80003F008FC4E48802103F004FC012702E0AB
:1032F80033706B7883B923051FD500F06FFF01F099
:10330800F1F9000E10F010030C46F1D06B7842066C
:1033180058BF3770002BEED0444B01221B78AA709F
:103328002878002B78D1FDF73BFD287000270A206C
:103338006F7000F06DFCAF70D8E73D4B3D4A4FF41D
:103348008021C3F880103C4B11881980198889B2F4
:10335800B1F5FA7F3CBF40F6FF711980518859805A
:10336800598889B2B1F5FA7F3CBF40F6FF715980A0
:1033780091889980998889B2B1F5FA7F3CBF40F667
:10338800FF719980D188D980D98889B2B1F5FA7F3F
:103398003CBF40F6FF71D98011891981198989B21A
:1033A800B1F5FA7F3CBF40F6FF7119815189598107
:1033B800598989B2B1F5FA7F3CBF40F6FF7159814E
:1033C80091899981998989B2B1F5FA7F3CBF40F614
:1033D800FF719981D289DA81DA8992B2B2F5FA7FDE
:1033E8003CBF40F6FF72DA8172B6144CFFF7C8F999
:1033F800B4F84620B4F844000F49FFF73DFB0949EB
:10340800B4F84220B4F84000FFF736FB62B6084B28
:103418004FF480221A60F8BDFDF776FE287085E724
:1034280000000240DC000020C40000202C01002025
:1034380000E100E0B000002028000020E4000020A7
:1034480010B5094C0949B4F84620B4F84400FFF710
:10345800A5FCB4F84220B4F840000549FFF79EFCEB
:10346800BDE81040FFF784B8E400002028000020E1
:10347800DC0000202DE9F04FC7B04FF48072002126
:1034880006A803F003FF01F02DF9814600208846C5
:103498005D4C00F069FF002301931F465B4BD3F896
:1034A80000A0FEF739FA637893B14FF00103A370D7
:1034B800574B20781B78002B5DD0FDF725FE207038
:1034C8004FF000031E460A20637000F0AFFBA670A1
:1034D800019BAAEB0303052B25D8CDE9049800200E
:1034E800FEF778F9C0F307238DF80800C0F307400A
:1034F8008DF80A0001208DF80930FEF76BF90346B4
:103508008DF80C30C3F30721C3F307438DF80D1072
:103518008DF80E300298039900F032FF4FF4FA70DC
:1035280000F084FBBAE701F0DDF8414508BF4845E3
:10353800CDE9040106468B4608BFCDF804A0CED0DD
:1035480004A8FFF793FC9DF8103013F008020CD183
:103558000E2F9ABF0137FFB21746384600F004FF16
:10356800B146CDF804A0D84698E75A0707D4AFB1BA
:10357800013FFFB2F1E7FDF713FC2070A0E713F05D
:10358800010314D0BDF8143003F48863B3F5886FD1
:1035980006D1CDF804A0B146D8467FE70F27DCE76F
:1035A8001C4A00231370E37047B0BDE8F08F9846BB
:1035B800194B03EB870233F82700528806A9FFF757
:1035C800EDFB06A98022154803F08CFE26A980226F
:1035D800134803F087FE1349134A4FF0FF33404660
:1035E8000B604B6013605360FEF7D6FB0120FEF7BB
:1035F800D3FB00F075FE074B83F8008084F8038046
:1036080047B0BDE8F08F00BFC4000020D000002004
:103618002C010020DD000020E40000207C020020B6
:10362800FC010020F4010020EC0100202DE9F04FFE
:10363800C5B04FF48072002104A803F027FE01F002
:1036480051F882460020894600F08EFE4FF0000BAC
:10365800514D5F46514B1E68FEF75EF96B789BB182
:103668004FF00103AB704E4B28781B78002B59D0D4
:10367800FDF74AFD28704FF000030A206B7000F038
:10368800D5FA4FF00003AB70A6EB0B03052B25D83A
:10369800CDE902A90020FEF79DF8C0F307238DF8B5
:1036A8000000C0F307408DF8020001208DF80130BA
:1036B800FEF790F803468DF80430C3F30721C3F3EF
:1036C80007438DF805108DF806300098019900F031
:1036D80057FE4FF4FA7000F0A9FABBE701F002F8C0
:1036E800494508BF5045CDE9020108BFB346D1D0CE
:1036F80002A8FFF7BBFB9DF8083013F008020BD1B6
:103708000E2F9ABF0137FFB21746384600F02CFE3D
:10371800DDE902A9B3469DE75A0707D4BFB1013FC7
:10372800FFB2F2E7FDF73CFB2870A4E713F00203B1
:103738000FD0BDF80C3003F48863B3F5886FE7D079
:10374800184A00231370EB7045B0BDE8F08F0F27BF
:10375800DBE7994614490123802204A8AB7003F0E3
:10376800C1FD1249802224A803F0BCFD104B85F846
:10377800029003EB870233F82700528804A9FFF769
:103788007BF900F069FD074B83F8009085F80390FA
:1037980045B0BDE8F08F00BFC4000020D000002075
:1037A8002C010020DD0000207C020020FC0100200C
:1037B800E4000020F0B5404A404F87B000244FF4A1
:1037C8008021CDE90244CDE904440123C2F88010E8
:1037D800BB70FDF78BF80DF106052E46E0B2FDF73C
:1037E80043FE0A2000F022FA354803F025F8344851
:1037F800042103F043F80028F9D01421304803F0DD
:1038080021F8034626F8023F2D480421013403F02D
:103818003BF8082CE2D10024E0B235F8021F01344D
:10382800FEF7A0FE082CF7D172B67A68254CADF8E1
:103838000020110C42EA12230B43DBB28DF8021070
:1038480043B179680020FEF74DFB1F4B1A889B781F
:10385800BA80A370B7F80730ADF804301B4C9DF858
:1038680005309DF80410A2788DF806200B43134309
:103878000FD0FB793A7A797A43EA022343EA014185
:103888000120FEF72FFB104B1A889B78A7F807201A
:10389800A370FDF74DF90A2000F0C8F900230122B2
:1038A8003B707A70BA70FB7062B6034B4FF480229B
:1038B8001A6007B0F0BD00BF00E100E0C4000020BE
:1038C80000210140C8000020AC000020CB000020EF
:1038D8002DE9F04FB14CB24DB24EDFF8E082B24F55
:1038E800DFF8DCB297B04FF0000984F8009084F854
:1038F800019084F8029000F0F5FECDE91201CDE9BF
:103908001001DDE91023CDE90E23FDF73FFF2A69F9
:103918002B698DF8189002F00102C3F340138DF85B
:103928001A308DF81920069A0123494602A8FEF795
:10393800BBFB2A692B698DF81C90C2F34002C3F3C4
:10394800C0138DF81E308DF81D2001231946079AE3
:10395800964D02A8FEF7A8FB05230193CA46FDF77A
:10396800DBFF6378A3B14FF00103A370904B20787D
:103978001B78002B00F0F880FDF7C6FB20704FF095
:1039880000030A20637000F051F94FF00003A370A0
:103998003368A3EB0A03052B00F29A800020FDF799
:1039A80019FFC0F307238DF83000C0F307408DF8E6
:1039B800320001208DF83130FDF70CFF98F8003007
:1039C8008DF83400C0F30722C0F307408DF8352086
:1039D8008DF83600002B60D19DF832109DF831002B
:1039E8000EAA02F0FBFA0020FDF7F4FEC0F307234D
:1039F8008DF82000C0F307408DF8220001208DF8D3
:103A08002130FDF7E7FE8DF82400C0F30721C0F34D
:103A180007408DF825108DF82600DDE908019BF890
:103A280000203B7800F0B0FA2B78002023F0010347
:103A38002B70FDF7CFFEC0F307238DF82800C0F3E5
:103A480007408DF82A0001208DF82930FDF7C2FEC5
:103A5800C0F307238DF82C00C0F307408DF82D30F4
:103A68008DF82E00DDE90A013A7800F039FB2B7851
:103A780023F002032B703368A3EB0903142B22D81D
:103A8800E378012B18D0E378022B7CD0E378032B62
:103A98007FF465AFFFF78EFE61E798F80030012BE1
:103AA8006CD098F80030022B62D098F80030032BC5
:103AB8005ED00020014693E7FFF7DCFC4FF4FA7074
:103AC80000F0A6F84BE700F06DFBD6F80090D7E7BA
:103AD80000F008FECDE91401D6F800A0DDE91401D4
:103AE800DDE91023994208BF904253D0019B013B66
:103AF8009BB20EA80193FFF735FA019B002B7FF4C8
:103B08004DAFDDE91023CDE91223DDE91423CDE91A
:103B18001023DDE910230EA8CDE90E23FFF7A6F93F
:103B28009DF8383003F00303032B1AD0012110202D
:103B380003F04CF81F4845F208230385C823C362E5
:103B4800019B43624FF001038381038843F0010323
:103B58000380194B4FF480025A600122114603F08A
:103B6800B9F90523019319E7FDF71AF9207006E75B
:103B780039789BF80000C9B2C0B231E79DF8361019
:103B88009DF835002CE7FFF751FD4FF4FA7000F06F
:103B98003FF8E4E60EA8FFF7E5F9E2E7C4000020E5
:103BA80000040240D0000020CF000020E0000020E8
:103BB8002C0100200010004000E100E0DD000020A2
:103BC800CE00002010B584B00446684602F0A8FF75
:103BD8000198B0FBF4F0B0F1807F0CD24FF0E023F5
:103BE800064A01384FF0F00C5861002182F823C0D2
:103BF800072299611A6104B010BD00BF00ED00E012
:103C0800024A136801331360704700BFD0000020D8
:103C1800044A054B516803FB00F053685B1A98424D
:103C2800FBD87047001000E040900200044AA82327
:103C3800516803FB00F053685B1A9842FBD8704741
:103C4800001000E0A82200FB02F2064B064902F22F
:103C5800E732A3FB0232486892094B681B1A9A4262
:103C6800FBD87047D34D6210001000E000B5012169
:103C780083B0084602F09EFF4FF4706C01220023C7
:103C88000548CDF800C069468DF80720ADF8043026
:103C980002F0D0FE03B000BD0000024070B54FF442
:103CA8008061144802F01EFF4FF400710646114867
:103CB80002F018FF4FF4807105460E4802F012FF1B
:103CC8004FF4006104460B4802F00CFFEB43C2437B
:103CD800F1435B0001F00101E04303F002039200AD
:103CE8000B4302F00402C000134300F0080018431D
:103CF80070BD00BF00000240154B1648002110B5EA
:103D080019701A78144C90F800C042F001021A7029
:103D18001A7842F002021A70104B1970104B6FF0AB
:103D280009024FF0FF301A602060BCF1000F06D086
:103D380000F060FFBDE81040094800F0A5BD4FF64F
:103D4800FF7000F0C5FEBDE81040054800F09CBDBE
:103D5800E00000202C0100203C000020DD000020B5
:103D6800D800002000B5C37891F800C0DFF814E24D
:103D7800C3F38002CCF3800C22EA0C0262F38203C4
:103D8800C37091F800C09EF800E0DBB2CCF3001CD1
:103D9800C3F3001222EA0C0262F30413C37091F811
:103DA80000C0DBB2CCF3401CC3F3401222EA0C0281
:103DB80062F34513C37091F800C0DBB2CCF3801CEA
:103DC800C3F3801222EA0C0262F38613C37091F8DF
:103DD80000C0DBB2C3F3C01222EADC1262F3C713DD
:103DE800C37082784B78C2F3000CC3F300032CEA4B
:103DF800030C03786CF300028270C3F3801CDA09A9
:103E0800BEF1000F00F0AE8091F802E0CEF3001E84
:103E18002CEA0E0C6CF3861303708B78C3F3C00383
:103E280022EA030290F800C0837862F3C71C80F886
:103E380000C091F801C0C3F30012CCF3001C22EAC1
:103E48000C0262F30413837091F801C0DBB2CCF367
:103E5800401CC3F3401222EA0C0262F3451383703C
:103E680091F800C0C378CCF3C00CC3F3C00222EAB7
:103E78000C0262F3C303C37091F800C0DBB2CCF349
:103E8800400CC3F3400222EA0C0262F34103C37000
:103E980091F800C0DBB2CCF3000CC3F3000222EAB5
:103EA8000C0262F30003C37091F801C08378CCF36D
:103EB800801CC3F3801222EA0C0262F3861383701B
:103EC80091F801C0DBB2C3F3C01222EADC1262F33C
:103ED800C713837091F802C04378CCF3000CC3F386
:103EE800000222EA0C0262F30003437091F802C058
:103EF800DBB2C3F34002CCF3400C22EA0C0262F3BB
:103F08004103437091F802C0DBB2C3F38002CCF3E3
:103F1800800C22EA0C0262F38203437091F801C01C
:103F28008378CCF3400CC3F3400222EA0C0262F31C
:103F38004103837091F801C0DBB2C3F38002CCF374
:103F4800800C22EA0C0262F3820383704978DBB2A8
:103F5800C3F3C002C1F3C00122EA010262F3C30342
:103F6800837000BD91F802E0CEF3C00E2CEA0E0C6F
:103F78006CF3861303708B78C3F3001322EA0302F1
:103F880050E700BFDC00002010B55FFA80FC8AB063
:103F9800BCF1010FCDE90210C9B27DD0ACF102002D
:103FA800022821D84A4C207820F0020020700129EC
:103FB80024D0881E022875D84548017821F01001C0
:103FC8000170444C217811B3217802291FD021783F
:103FD80001296FD0217803296CD02178032930D8A2
:103FE800DFE801F0523F3122BCF1000FDFD1384841
:103FF800047801296CF300040470DAD13448354C94
:10400800017821F02001017021780029DCD13248A3
:104018004021CDE9002302F06BFD2F48802102F0FA
:1040280069FDDDE90023D8E703EB0213DBB22B4A75
:10403800274852F82330059305A9CDE90833FFF73F
:1040480091FE0AB010BD03EB0213244A2048DBB2EC
:1040580005A952F8233009930593FFF783FE0AB0A8
:1040680010BD9DF809109DF80A301C4A184803EB4A
:104078000113DBB205A952F823300593CDE90833C3
:10408800FFF770FE0AB010BD9DF80D109DF80E30B8
:10409800124A03EB0113D9E70D4C207820F00400F5
:1040A800207084E700298CD10948047861F3C3049F
:1040B800047086E708488021CDE9002302F018FD46
:1040C8000548402102F016FDDDE9002385E700BF21
:1040D800D8000020DD000020000002407C02002003
:1040E80082B0184B01901878009158B9DFF858C081
:1040F8009DF8061001208840DCF8001021EA000134
:10410800CCF8001019780129C8B20AD1DFF838C0F4
:104118009DF802108840DCF8001021EA0001CCF874
:1041280000101978022904D01B78032B01D002B0A3
:104138007047054801210368914023EA01030360A1
:1041480002B07047DD0000203C00002010B5144B81
:104158001B7808248BB1002000F04CFD3C20FFF7B1
:1041680057FD4FF0FF3000F045FD3C20FFF750FDB4
:10417800631E13F0FF04EED110BD002000F0A8FC70
:104188003C20FFF745FD4FF6FF7000F0A1FC3C20F6
:10419800FFF73EFD631E13F0FF04EED1ECE700BF0E
:1041A8002C01002038B50A4B0A4D1B78286853B1FA
:1041B80000F020FD4FF0FF3407482C6000F064FB4E
:1041C800054B1C6038BD80B200F082FCF2E700BFEE
:1041D8002C0100203C000020D800002010B51B4C0A
:1041E8002388132B1AD81A490B7823F03F0343F07E
:1041F80036030B70174B08781A78930103F04003C5
:10420800D24343EAC21300F03F02134310480B7035
:1042180000F03AFB23880133238010BD272B07D8F1
:104228000B490B7823F03F0343F01B030B70E1E7C6
:104238003B2B07D806490B7823F03F0343F02D03A7
:104248000B70D7E7002302492380D3E7D60000206C
:10425800D8000020DC00002038B51F4C1F4B4FF65B
:10426800FF7018604FF0FF3500F032FC20462560E3
:1042780000F00AFBE378204623F00F03E37000F018
:1042880003FB3220FFF7C4FC638823F4704323F058
:1042980001032046638000F0F7FA3220FFF7B8FCEC
:1042A800A378204623F03E03A37000F0EDFA3220F5
:1042B800FFF7AEFC236823F4400323F48063204611
:1042C800236000F0E1FA3220FFF7A2FC25602046C7
:1042D800BDE8384000F0D8BAD80000203C000020E3
:1042E80038B51F4C1F4B4FF6FF7018604FF0FF3565
:1042F80000F0EEFB2046256000F0C6FA236823F4A0
:10430800400323F480632046236000F0BDFA322086
:10431800FFF77EFCA378204623F03E03A37000F04D
:10432800B3FA3220FFF774FC638823F4704323F058
:1043380001032046638000F0A7FA3220FFF768FCEB
:10434800E378204623F00F03E37000F09DFA322053
:10435800FFF75EFC25602046BDE8384000F094BABF
:10436800D80000203C000020012303FA00F0C043DD
:1043780082B2024B10461A6000F0AABB3C00002033
:1043880000B5DFF8C8C0304B4FF0FF3283B01A6079
:10439800BCF80020B2F5967FC0B2C9B220D293F81B
:1043A80000E02EF0800E013283F800E00128ACF81E
:1043B800002023D0821E022A30D81A7822F0020266
:1043C8001A70012920D08A1E022A30D81A7822F0C1
:1043D80010021A701C4803B05DF804EB00F054BAE0
:1043E800B2F5167F21D293F800E001322EF0400E8C
:1043F800012883F800E0ACF80020DBD11A78012905
:1044080022F004021A70DED11A780F4822F0200236
:104418001A7003B05DF804EB00F036BA0028D0D16A
:104428001A7860F300021A70CBE70022BEE7002971
:10443800D0D11A78044861F3C3021A7003B05DF84A
:1044480004EB00F021BA00BFD8000020D4000020FF
:1044580082B000234FF48072ADF80430ADF8063016
:10446800ADF80620BDF804C0BDF80610BDF806007A
:10447800BDF804207F4B0244ADF80420BDF80420A9
:104488005980BDF806009A80BDF80610BDF80420D2
:10449800A3F800C00A44ADF80420D880BDF8040091
:1044A800BDF806C0BDF80610BDF8042018810A44FE
:1044B800ADF80420BDF80400BDF80620DA81BDF887
:1044C8000610BDF80420A3F80AC00A44ADF8042079
:1044D8009881BDF804201A82BDF806C0BDF8061000
:1044E800BDF80420A3F812C00A44ADF80420BDF8B2
:1044F8000410BDF80620DA82BDF806C0BDF8042015
:1045080099826244ADF80420BDF804C0BDF80620C5
:10451800A3F818C05A83BDF806C0BDF80420624449
:10452800ADF80420BDF804C0BDF80620A3F81CC0EF
:10453800DA83BDF806C0BDF804206244ADF8042053
:10454800BDF804C0BDF806205A84A3F820C0BDF801
:1045580006C0BDF804206244ADF80420BDF804C0CC
:10456800BDF80620A3F824C0DA84BDF806C0BDF85B
:1045780004206244ADF80420BDF804C0BDF806204C
:10458800A3F828C05A85BDF806C0BDF804206244C7
:10459800ADF80420BDF804C0BDF80620A3F82CC06F
:1045A800DA85BDF806C0BDF804206244ADF80420E1
:1045B800BDF804C0BDF80620A3F830C05A86BDF87F
:1045C80006C0BDF804206244ADF80420BDF804C05C
:1045D800BDF80620DA86A3F834C0BDF806C0BDF8D9
:1045E80004206244ADF80420BDF804C0BDF80620DC
:1045F800A3F838C05A87BDF806C0BDF80420624445
:10460800ADF80420BDF804C0BDF80620A3F83CC0EE
:10461800DA87BDF806C0BDF804204FF6FF70624483
:104628001021ADF80420ADF80400ADF80610BDF86F
:104638000610BDF80420521AADF804200120BDF878
:1046480004C0BDF80610ADF80600BDF80600BDF8B8
:104658000420A3F844C0121AADF80420BDF80420C1
:10466800A3F84020BDF80620A3F84610A3F842207E
:1046780002B07047E400002008B5FFF70FFB0307FE
:1046880002D5024B01221A7008BD00BF2C01002080
:1046980010B5012184B0042002F08CFA00240E2207
:1046A80040F2013369460E480092ADF80430ADF887
:1046B800064002F0BFF9012302A90948CDE90234F6
:1046C80002F0B8F90648082102F012FA0448042159
:1046D80002F010FA0248022102F00CFA04B010BDF0
:1046E800000802402DE9F041002382B004215B4814
:1046F800CDE9003302F0FEF90A20FFF797FA574890
:10470800042102F0F7F95548022102F0F3F9534861
:10471800082102F0EFF900BF00BF00BF00BF00BFD3
:1047280000BF00BF00BF00BF00BF00BF00BF00BF89
:1047380000BF00BF00BF4948082102F0D9F900BFF7
:1047480000BF00BF00BF00BF00BF00BF00BF00BF69
:1047580000BF00BF00BF00BF00BF00BF00BF3F4E8B
:104768000DF1FF370DF1060800BF00BF00BF00BF05
:1047780000BF00BF00BF00BF00BF00BF00BF00BF39
:1047880000BF00BF00BF00BF35693448022102F0F6
:10479800AFF905F0010500BF00BF00BF00BF00BFB3
:1047A80000BF00BF00BF00BF00BF00BF00BF00BF09
:1047B80000BF00BF00BF07242848022102F09AF971
:1047C80000BF00BF00BF00BF00BF00BF00BF00BFE9
:1047D80000BF00BF00BF00BF00BF00BF00BF00BFD9
:1047E80033691E4803F00103022143EA450502F03C
:1047F8007FF900BF00BF00BF00BF00BF00BF00BF00
:1048080000BF00BF00BF00BF00BF00BF00BF00BFA8
:1048180000BF631E13F0FF04CED10221304602F020
:1048280069F900BF00BF00BF00BF00BF00BF00BFE5
:1048380000BF00BF00BF00BF00BF00BF00BF00BF78
:1048480000BF07F8015FB8458ED10448042102F083
:104858004FF9DDE9000102B0BDE8F081000802402F
:1048680000B5012183B0042002F0A4F9044B0548E7
:1048780070226946CDE9002302F0DCF803B000BDE0
:10488800010200010008024070B505464021844835
:1048980002F030F908242E782FE002F02BF9804836
:1048A800102102F027F900BF00BF00BF00BF00BF02
:1048B80000BF00BF00BF00BF00BF00BF00BF00BFF8
:1048C80000BF00BF00BF7648102102F011F900BFF9
:1048D80000BF00BF00BF00BF00BF00BF00BF00BFD8
:1048E80000BF00BF00BF00BF00BF00BF00BF631E06
:1048F80013F0FF044FEA460608D016F0800F684808
:104908004FF02001C9D002F0F3F8C8E7644820212D
:1049180002F0F0F808246E782FE002F0EBF8604817
:10492800102102F0E7F800BF00BF00BF00BF00BFC2
:1049380000BF00BF00BF00BF00BF00BF00BF00BF77
:1049480000BF00BF00BF5648102102F0D1F800BFD9
:1049580000BF00BF00BF00BF00BF00BF00BF00BF57
:1049680000BF00BF00BF00BF00BF00BF00BF631E85
:1049780013F0FF044FEA460608D016F0800F4848A7
:104988004FF02001C9D002F0B3F8C8E7444820210D
:1049980002F0B0F80824AE782FE002F0ABF84048F7
:1049A800102102F0A7F800BF00BF00BF00BF00BF82
:1049B80000BF00BF00BF00BF00BF00BF00BF00BFF7
:1049C80000BF00BF00BF3648102102F091F800BFB9
:1049D80000BF00BF00BF00BF00BF00BF00BF00BFD7
:1049E80000BF00BF00BF00BF00BF00BF00BF631E05
:1049F80013F0FF044FEA460608D016F0800F284847
:104A08004FF02001C9D002F073F8C8E724482021EC
:104A180002F070F80824ED782FE002F06BF82048D7
:104A2800102102F067F800BF00BF00BF00BF00BF41
:104A380000BF00BF00BF00BF00BF00BF00BF00BF76
:104A480000BF00BF00BF1648102102F051F800BF98
:104A580000BF00BF00BF00BF00BF00BF00BF00BF56
:104A680000BF00BF00BF00BF00BF00BF00BF631E84
:104A780013F0FF044FEA450508D015F0800F0848E9
:104A88004FF02001C9D002F033F8C8E704482021CC
:104A980002F030F8BDE870400148402102F028B823
:104AA8000008024000B5012183B0042002F082F81A
:104AB800054B06484FF460726946CDE9002301F0C2
:104AC800B9FF03B000BD00BF0103000100080240A8
:104AD80070B54FF4007105460824454802F00AF8FD
:104AE80025FA04F62FE002F005F84148802102F08B
:104AF80001F800BF00BF00BF00BF00BF00BF00BF7C
:104B080000BF00BF00BF00BF00BF00BF00BF00BFA5
:104B180000BF3748802101F0EBFF00BF00BF00BF96
:104B280000BF00BF00BF00BF00BF00BF00BF00BF85
:104B380000BF00BF00BF00BF00BF631E13F0FF042B
:104B48004FEA460608D016F0800F29484FF48071C6
:104B5800C9D001F0CDFFC8E725484FF4807101F0B6
:104B6800C9FF08242FE001F0C5FF2148802101F08A
:104B7800C1FF00BF00BF00BF00BF00BF00BF00BF34
:104B880000BF00BF00BF00BF00BF00BF00BF00BF25
:104B980000BF1748802101F0ABFF00BF00BF00BF76
:104BA80000BF00BF00BF00BF00BF00BF00BF00BF05
:104BB80000BF00BF00BF00BF00BF631E13F0FF04AB
:104BC8004FEA450508D015F0800F09484FF4807169
:104BD800C9D001F08DFFC8E705484FF4807101F096
:104BE80089FFBDE8704002484FF4007101F080BFB2
:104BF8000008024070B54FF400710546864801F080
:104C080079FF08242E0C2FE001F074FF82488021E0
:104C180001F070FF00BF00BF00BF00BF00BF00BFB2
:104C280000BF00BF00BF00BF00BF00BF00BF00BF84
:104C380000BF00BF7848802101F05AFF00BF00BFC5
:104C480000BF00BF00BF00BF00BF00BF00BF00BF64
:104C580000BF00BF00BF00BF00BF00BF631E13F04E
:104C6800FF044FEA460608D016F0800F6A484FF452
:104C78008071C9D001F03CFFC8E767484FF48071E4
:104C880001F038FF08242E0E2FE001F033FF6248B0
:104C9800802101F02FFF00BF00BF00BF00BF00BF91
:104CA80000BF00BF00BF00BF00BF00BF00BF00BF04
:104CB80000BF00BF00BF5848802101F019FF00BFA6
:104CC80000BF00BF00BF00BF00BF00BF00BF00BFE4
:104CD80000BF00BF00BF00BF00BF00BF00BF631E12
:104CE80013F0FF044FEA460608D016F0800F4A4832
:104CF8004FF48071C9D001F0FBFEC8E746484FF475
:104D08008071082401F0F6FE25FA04F62FE001F080
:104D1800F1FE4148802101F0EDFE00BF00BF00BF59
:104D280000BF00BF00BF00BF00BF00BF00BF00BF83
:104D380000BF00BF00BF00BF00BF3748802101F09F
:104D4800D7FE00BF00BF00BF00BF00BF00BF00BF4D
:104D580000BF00BF00BF00BF00BF00BF00BF00BF53
:104D680000BF631E13F0FF044FEA460608D016F092
:104D7800800F29484FF48071C9D001F0B9FEC8E707
:104D880025484FF4807101F0B5FE08242FE001F0AA
:104D9800B1FE2148802101F0ADFE00BF00BF00BF79
:104DA80000BF00BF00BF00BF00BF00BF00BF00BF03
:104DB80000BF00BF00BF00BF00BF1748802101F03F
:104DC80097FE00BF00BF00BF00BF00BF00BF00BF0D
:104DD80000BF00BF00BF00BF00BF00BF00BF00BFD3
:104DE80000BF631E13F0FF044FEA450508D015F015
:104DF800800F09484FF48071C9D001F079FEC8E7E7
:104E080005484FF4807101F075FEBDE87040024816
:104E18004FF4007101F06CBE0008024010B584B078
:104E2800002340F205213D488DF80F3001F030FD98
:104E380040F2052104463A4801F02AFD012C0246B9
:104E48002DD0012A23D0374B997889B919780F29A1
:104E580010D8012C43D01978172928D8012A30D026
:104E68001A78272A10D91A78372A24D8012C51D031
:104E780004B010BD1978172901D8012A21D01A7851
:104E8800272AF0D8012C37D01B7804B010BD24484D
:104E9800019240F2052101F011FD019AD3E701903A
:104EA80040F205211D4801F009FD019AC9E71A7869
:104EB8001B7804B010BD012CDAD11A781749283AAA
:104EC8001DE01A781649103A8DF80F209DF80F004A
:104ED800C96CFDF7F3FA134B01225A70C8E71A7828
:104EE8000E498DF80F209DF80F00C96C00F048FF9F
:104EF8000C4B5C7004B010BD1A780849183A8DF84C
:104F08000F209DF80F00C96C00F0B6FF054B5C70D0
:104F180004B010BD1A780149183AE2E700200140B0
:104F280000210140C400002070B5012190B008465E
:104F380001F04CFE03A8002501F09EFF06234FF464
:104F48007A7203A94FF08040CDE90323ADF81450DD
:104F580001F03AFF50214FF0804001F0D5FF0122C7
:104F680004214FF0804001F0A7FF01214FF080405D
:104F780001F0A0FF4FF080403A4E038B43F4E0432A
:104F88000383012101F08CFF0121084686F81253A2
:104F980001F010FE032301A93348CDE901358DF84E
:104FA800083001F047FD01214FF4807001F01AFE2E
:104FB80001214FF4007001F015FE4FF4003306A8EC
:104FC800CDE90653CDE9085501F088FB0AA801F0A0
:104FD8007BFB4FF0C0630124CDE90D350AA94FF0E2
:104FE800805322480C938DF83C400A95ADF82C501C
:104FF80001F042FB0AA91E4801F03EFB2946224661
:105008001A48072301F08AFB22460723214618483D
:1050180001F084FB2146164801F006FC2246214691
:105028001348072301F0CCFB124B0093684601F0AC
:10503800F3FA4FF48023336022460C4840F20521EE
:1050480001F00EFC22460A4840F2052101F008FC56
:105058002146064801F058FB0548214601F054FB5B
:1050680010B070BD00E100E00000024000200140E7
:10507800002101401200000130B5012187B04FF432
:10508800804001F0AFFDA3254FF44073002402A92E
:105098002448ADF80C308DF80F40029501F0CAFC99
:1050A8002146012001F07AFE0121084601F076FE32
:1050B8000521012001F072FE0721012001F06EFE9A
:1050C800012401F05DFC4FF4006304A8ADF814302E
:1050D80004958DF8164001F061FC134B019301A86B
:1050E80001F09AFA114B019301A801F095FA104BBF
:1050F800019301A801F090FA204601F095FC0220E6
:1051080001F092FC202001F08FFC402001F08CFC83
:10511800802001F089FC4FF4807001F085FC07B015
:1051280030BD00BF00040240060F0001070F000158
:105138001700000170B5684B86B001201C6801F0AB
:1051480069FC0646202001F065FCA6F10103A0F1E8
:105158000100B3FA83F3B0FA80F000255B09400937
:105168008DF816008DF814508DF81530059BADF8A4
:1051780000301A0C02208DF8022001F04BFC064684
:10518800802001F047FCA6F10103A0F10100B3FA69
:1051980083F3B0FA80F05B0940098DF810508DF860
:1051A80011308DF81200049B4C4AADF804301B0CEA
:1051B8008DF806301368E11A022970D9009BADF802
:1051C8000830190C43EA13230B43DBB28DF80A109D
:1051D80063B1434BD978002978D1BDF800509DF8C8
:1051E80002009D8003219871D97014603D4D2B6891
:1051F800E21A022A21D9019BADF80C301A0C43EAB5
:1052080013231343DBB28DF80E20002B4BD19DF8EE
:105218000030D3B99DF80130FBB99DF802301BBBB3
:105228009DF804303BBB9DF80530002B2AD19DF832
:105238000630002B2DD106B070BDA34284BF0023D9
:105248002B609DF80030002BE4D04FF4807001F003
:10525800EBFB9DF80130002BDFD0012001F0E4FBCF
:105268009DF80230002BDBD0202001F0DDFB9DF8FB
:105278000430002BD7D0402001F0D6FB9DF8053034
:10528800002BD4D0022001F0CFFB9DF80630002B74
:10529800D1D0802006B0BDE8704001F0C5BBA34264
:1052A80088BF1560A2E70E4BDA7852B9BDF8040042
:1052B8009DF80610A3F8070003225972DA702C60D3
:1052C800A5E701990120FCF70DFEF8E700992846AB
:1052D800FCF708FE014A88E7D000002054010020AE
:1052E800C40000205001002008B50220FEF79EFCF3
:1052F800BDE80840FFF71EBF08B50220FEF796FC80
:10530800BDE80840FFF716BF08B50220FEF78EFC7F
:10531800BDE80840FFF70EBF30B5484B4FF6FE72A8
:1053280087B01A8272B6464D2C78FCB1454CD4ED44
:10533800007A94ED027A77EE877ABCEEE77AC4EDCC
:10534800007A17EE103A98B2FBF796F93E4B002216
:10535800FBF746F8FBF7FAF981B2002001F0F0FA02
:105368002B78013B2B7062B607B030BD2046FDF7A5
:1053780057F8202828BF2020C3B2344A2B7011695F
:1053880012698DF8084001F00101C2F340128DF84E
:1053980009108DF80A20029A214603A8FCF784FE1A
:1053A8009DF81430DDED037A264C1A072BD49FEDB7
:1053B800287AC4ED007AC4ED017A0193DB0723480B
:1053C80084ED027A4FF4007134D501F093FB019B10
:1053D8001E4801939A074FF4006127D501F08AFB14
:1053E800019B1A485B074FF480611CD501F082FBD2
:1053F800BDF81010002000F0EFFABDF812100120DF
:1054080000F0EAFA93E72A7894ED017AC4ED017A7C
:1054180006EE902A37EEC76AF8EE666A84ED007ADF
:1054280086EE267AC9E701F063FBE1E701F060FB4D
:10543800019BD6E701F05CFB019BC9E7000800402F
:105448004C010020400100200000E03F0004024021
:105458000000000030B5484B4FF6FE7287B01A8244
:1054680072B6464D2C78FCB1454CD4ED007A94EDDB
:10547800027A77EE877ABCEEE77AC4ED007A17EE07
:10548800103A98B2FBF7F8F83E4B0022FAF7A8FF5B
:10549800FBF75CF981B2002001F062FA2B78013B3E
:1054A8002B7062B607B030BD0120FCF7B9FF202889
:1054B80028BF2020C3B2344A2B70116912698DF8B5
:1054C8000840C1F34001C2F3C0128DF809108DF8ED
:1054D8000A20029A2A4C012103A8FCF7E5FD9DF851
:1054E8001430DDED037A1A072BD49FED287AC4ED2A
:1054F800007AC4ED017A0193DB07254884ED027A2E
:105508004FF0040134D501F0F5FA019B20480193CE
:105518009A074FF0080127D501F0ECFA019B1C48C7
:105528005B074FF480511CD501F0E4FABDF8101068
:10553800022000F051FABDF81210032000F04CFAD6
:1055480093E72A7894ED017AC4ED017A06EE902A61
:1055580037EEC76AF8EE666A84ED007A86EE267A38
:10556800C9E701F0C5FAE1E701F0C2FA019BD6E705
:1055780001F0BEFA019BC9E7000C00403C01002085
:10558800300100200000E03F00040240000000005D
:105598000000024070B5012184B0042001F016FB20
:1055A80001A8012401F068FC00264FF4A46301A9B6
:1055B8002E4801930294ADF80C6001F005FC2146D9
:1055C8002A482B4D01F062FC2146284801F068FC6E
:1055D8002146082001F0FAFA01A9264801F0F4FB57
:1055E8002146244801F052FC2146224801F058FC8B
:1055F800224621461D4801F06DFC224621461D48E1
:1056080001F068FC1C4B0093684601F005F81B4B41
:105618000093684601F000F8102385F81E3385F8DA
:105628003233174B174ADA6021464FF4807001F085
:10563800CDFA01A801F020FC4FF4207301A90293D0
:105648001148ADF80C60D223019301F0BDFB31463F
:105658000D4801F025FC0C482246214601F03AFC91
:105668004FF480536B6004B070BD00BF0008004069
:1056780000E100E0000C00401E01010132010101BF
:1056880000ED00E00007FA050004014008B50848ED
:10569800012101F029FC00B908BD0548002101F0ED
:1056A800FFFBBDE808400248012101F029BC00BF0A
:1056B8000004014008B50848012101F015FC00B9B3
:1056C80008BD0548002101F0EBFBBDE80840024891
:1056D800012101F015BC00BF0020004010B50B4CA3
:1056E8000B484FF6FE734FF48071238201F0FAF9EC
:1056F800A0F10101B1FA81F149090020FCF7F0F9A4
:1057080018B1238823F00103238010BD0004004052
:105718000004024010B50B4C0B484FF6FE734021B5
:10572800238201F0DFF9A0F10101B1FA81F1490901
:105738000120FCF7D5F918B1238823F00103238051
:1057480010BD00BF0014004000040240FDF73ABD40
:1057580030B5012183B0022001F02CFA00254FF466
:10576800606340F2013469461A480093ADF8065068
:10577800ADF8044001F05EF916484FF4007101F0ED
:10578800B7F914484FF4006101F0B2F911484FF429
:10579800806101F0ADF90121084601F00BFA41F2F0
:1057A8000C0369460C480093ADF80650ADF8044068
:1057B80001F040F90848042101F09AF90648082147
:1057C80001F096F904484FF4805101F091F903B0C3
:1057D80030BD00BF000402400000024000B50121B6
:1057E80083B0084601F0E6F94FF0C00C40F20132F0
:1057F80000230648CDF800C06946ADF804208DF8AE
:10580800063001F017F903B000BD00BF00000240E8
:1058180000B587B002A801F07DF80121084601F023
:10582800C9F9302203236946164800928DF80430DE
:1058380001F000F901214FF0005001F0C7F90223EF
:10584800002000210593CDE9020101F03BF802A9EF
:10585800002001F045F802A9102001F041F80121CB
:10586800002001F05DF80121102001F059F8002115
:10587800084601F065F80021084601F071F807B004
:1058880000BD00BF000002404FF0E02108B5D1F88C
:10589800FC2D274B002042F08072C1F8FC2D586087
:1058A8001A6842F001021A6000F0E6F8214801F097
:1058B80037F94FF47A70FEF785F9FFF749FFFFF7DC
:1058C8008DFFFEF7D3F9FEF7E9F91B4B187018782E
:1058D800FCF7B4FDFEF7D0FEFCF7ECFEFEF7B8FDD2
:1058E800FEF7BEFFFFF7DEF8FEF7D2FE00F026F85F
:1058F800FBF740FAFAF7FAFFFFF716FBFAF7F6FF9D
:10590800FFF748FEFFF7B8FBFFF782FFFEF7F4F951
:105918003220FEF77DF9FEF7E5FECB0505D4FDF74D
:10592800D7FCFDF7D5FF002008BDFDF789FDF8E796
:10593800001000E0580100206801002000B5012196
:1059480089B0022001F036F91F4805220D2101F027
:10595800D3F81D4805220F2101F0CEF84FF420425C
:1059680040F2022301A91848CDE9012301F062F8A9
:10597800164B15484FF4805201A9CDE9012301F0D7
:1059880059F801214FF4804001F020F9104801F046
:105998004DF903A801F0D8F90E4808234FF000721A
:1059A800CDE9030303A900230948CDE9052301F044
:1059B800A5F90748012101F0CFF905484FF4807196
:1059C80001F0D4F909B000BD000402400102000151
:1059D800003800400040040108B5C1F3090103285C
:1059E80042D8DFE800F0393129024FEA911C8900DA
:1059F8004CF0F00C01F0FC011D4B1E484FF4805296
:105A08005A8303899A07FCD51A4AA0F80CC013894F
:105A1800DB07FCD59389174A13899807FCD51548E5
:105A280001F0B4F9134A1389DB07FCD5104B9289AE
:105A38004FF48051198308BD4FEA911C89004CF03E
:105A4800B00C01F0FC01D7E74FEA911C89004CF03B
:105A5800700C01F0FC01CFE74FEA911C89004CF073
:105A6800300C01F0FC01C7E700218C46C4E700BFF9
:105A780000040240003800400023DFF83CC00B4817
:105A880082B01A46194642F4003242F004024CF839
:105A9800232040F823100133202BF4D1044A054B6E
:105AA800116051601960596002B07047FC01002014
:105AB800F4010020EC0100207C02002001EB00131F
:105AC800DBB24E4850F82320120769D5DFF854C1DD
